{
  "contractName": "prana",
  "abi": [
    {
      "inputs": [],
      "stateMutability": "nonpayable",
      "type": "constructor"
    },
    {
      "anonymous": false,
      "inputs": [
        {
          "indexed": true,
          "internalType": "address",
          "name": "owner",
          "type": "address"
        },
        {
          "indexed": true,
          "internalType": "address",
          "name": "approved",
          "type": "address"
        },
        {
          "indexed": true,
          "internalType": "uint256",
          "name": "tokenId",
          "type": "uint256"
        }
      ],
      "name": "Approval",
      "type": "event"
    },
    {
      "anonymous": false,
      "inputs": [
        {
          "indexed": true,
          "internalType": "address",
          "name": "owner",
          "type": "address"
        },
        {
          "indexed": true,
          "internalType": "address",
          "name": "operator",
          "type": "address"
        },
        {
          "indexed": false,
          "internalType": "bool",
          "name": "approved",
          "type": "bool"
        }
      ],
      "name": "ApprovalForAll",
      "type": "event"
    },
    {
      "anonymous": false,
      "inputs": [
        {
          "indexed": true,
          "internalType": "address",
          "name": "publisher",
          "type": "address"
        },
        {
          "indexed": true,
          "internalType": "uint256",
          "name": "isbn",
          "type": "uint256"
        },
        {
          "indexed": true,
          "internalType": "string",
          "name": "bookCoverAndDetails",
          "type": "string"
        },
        {
          "indexed": false,
          "internalType": "uint256",
          "name": "price",
          "type": "uint256"
        }
      ],
      "name": "BookPublished",
      "type": "event"
    },
    {
      "anonymous": false,
      "inputs": [
        {
          "indexed": true,
          "internalType": "uint256",
          "name": "rentingPrice",
          "type": "uint256"
        },
        {
          "indexed": true,
          "internalType": "uint256",
          "name": "isbn",
          "type": "uint256"
        },
        {
          "indexed": true,
          "internalType": "uint256",
          "name": "tokenId",
          "type": "uint256"
        }
      ],
      "name": "TokenForRenting",
      "type": "event"
    },
    {
      "anonymous": false,
      "inputs": [
        {
          "indexed": true,
          "internalType": "uint256",
          "name": "resalePrice",
          "type": "uint256"
        },
        {
          "indexed": true,
          "internalType": "uint256",
          "name": "isbn",
          "type": "uint256"
        },
        {
          "indexed": true,
          "internalType": "uint256",
          "name": "tokenId",
          "type": "uint256"
        }
      ],
      "name": "TokenForSale",
      "type": "event"
    },
    {
      "anonymous": false,
      "inputs": [
        {
          "indexed": true,
          "internalType": "uint256",
          "name": "isbn",
          "type": "uint256"
        },
        {
          "indexed": true,
          "internalType": "uint256",
          "name": "tokenId",
          "type": "uint256"
        },
        {
          "indexed": true,
          "internalType": "address",
          "name": "rentee",
          "type": "address"
        }
      ],
      "name": "TokenRented",
      "type": "event"
    },
    {
      "anonymous": false,
      "inputs": [
        {
          "indexed": true,
          "internalType": "address",
          "name": "from",
          "type": "address"
        },
        {
          "indexed": true,
          "internalType": "address",
          "name": "to",
          "type": "address"
        },
        {
          "indexed": true,
          "internalType": "uint256",
          "name": "tokenId",
          "type": "uint256"
        }
      ],
      "name": "Transfer",
      "type": "event"
    },
    {
      "inputs": [
        {
          "internalType": "address",
          "name": "to",
          "type": "address"
        },
        {
          "internalType": "uint256",
          "name": "tokenId",
          "type": "uint256"
        }
      ],
      "name": "approve",
      "outputs": [],
      "stateMutability": "nonpayable",
      "type": "function"
    },
    {
      "inputs": [
        {
          "internalType": "address",
          "name": "owner",
          "type": "address"
        }
      ],
      "name": "balanceOf",
      "outputs": [
        {
          "internalType": "uint256",
          "name": "",
          "type": "uint256"
        }
      ],
      "stateMutability": "view",
      "type": "function",
      "constant": true
    },
    {
      "inputs": [],
      "name": "baseURI",
      "outputs": [
        {
          "internalType": "string",
          "name": "",
          "type": "string"
        }
      ],
      "stateMutability": "view",
      "type": "function",
      "constant": true
    },
    {
      "inputs": [
        {
          "internalType": "uint256",
          "name": "tokenId",
          "type": "uint256"
        }
      ],
      "name": "getApproved",
      "outputs": [
        {
          "internalType": "address",
          "name": "",
          "type": "address"
        }
      ],
      "stateMutability": "view",
      "type": "function",
      "constant": true
    },
    {
      "inputs": [
        {
          "internalType": "address",
          "name": "owner",
          "type": "address"
        },
        {
          "internalType": "address",
          "name": "operator",
          "type": "address"
        }
      ],
      "name": "isApprovedForAll",
      "outputs": [
        {
          "internalType": "bool",
          "name": "",
          "type": "bool"
        }
      ],
      "stateMutability": "view",
      "type": "function",
      "constant": true
    },
    {
      "inputs": [],
      "name": "name",
      "outputs": [
        {
          "internalType": "string",
          "name": "",
          "type": "string"
        }
      ],
      "stateMutability": "view",
      "type": "function",
      "constant": true
    },
    {
      "inputs": [
        {
          "internalType": "uint256",
          "name": "tokenId",
          "type": "uint256"
        }
      ],
      "name": "ownerOf",
      "outputs": [
        {
          "internalType": "address",
          "name": "",
          "type": "address"
        }
      ],
      "stateMutability": "view",
      "type": "function",
      "constant": true
    },
    {
      "inputs": [
        {
          "internalType": "address",
          "name": "from",
          "type": "address"
        },
        {
          "internalType": "address",
          "name": "to",
          "type": "address"
        },
        {
          "internalType": "uint256",
          "name": "tokenId",
          "type": "uint256"
        }
      ],
      "name": "safeTransferFrom",
      "outputs": [],
      "stateMutability": "nonpayable",
      "type": "function"
    },
    {
      "inputs": [
        {
          "internalType": "address",
          "name": "from",
          "type": "address"
        },
        {
          "internalType": "address",
          "name": "to",
          "type": "address"
        },
        {
          "internalType": "uint256",
          "name": "tokenId",
          "type": "uint256"
        },
        {
          "internalType": "bytes",
          "name": "_data",
          "type": "bytes"
        }
      ],
      "name": "safeTransferFrom",
      "outputs": [],
      "stateMutability": "nonpayable",
      "type": "function"
    },
    {
      "inputs": [
        {
          "internalType": "address",
          "name": "operator",
          "type": "address"
        },
        {
          "internalType": "bool",
          "name": "approved",
          "type": "bool"
        }
      ],
      "name": "setApprovalForAll",
      "outputs": [],
      "stateMutability": "nonpayable",
      "type": "function"
    },
    {
      "inputs": [
        {
          "internalType": "bytes4",
          "name": "interfaceId",
          "type": "bytes4"
        }
      ],
      "name": "supportsInterface",
      "outputs": [
        {
          "internalType": "bool",
          "name": "",
          "type": "bool"
        }
      ],
      "stateMutability": "view",
      "type": "function",
      "constant": true
    },
    {
      "inputs": [],
      "name": "symbol",
      "outputs": [
        {
          "internalType": "string",
          "name": "",
          "type": "string"
        }
      ],
      "stateMutability": "view",
      "type": "function",
      "constant": true
    },
    {
      "inputs": [
        {
          "internalType": "uint256",
          "name": "index",
          "type": "uint256"
        }
      ],
      "name": "tokenByIndex",
      "outputs": [
        {
          "internalType": "uint256",
          "name": "",
          "type": "uint256"
        }
      ],
      "stateMutability": "view",
      "type": "function",
      "constant": true
    },
    {
      "inputs": [
        {
          "internalType": "address",
          "name": "owner",
          "type": "address"
        },
        {
          "internalType": "uint256",
          "name": "index",
          "type": "uint256"
        }
      ],
      "name": "tokenOfOwnerByIndex",
      "outputs": [
        {
          "internalType": "uint256",
          "name": "",
          "type": "uint256"
        }
      ],
      "stateMutability": "view",
      "type": "function",
      "constant": true
    },
    {
      "inputs": [
        {
          "internalType": "uint256",
          "name": "tokenId",
          "type": "uint256"
        }
      ],
      "name": "tokenURI",
      "outputs": [
        {
          "internalType": "string",
          "name": "",
          "type": "string"
        }
      ],
      "stateMutability": "view",
      "type": "function",
      "constant": true
    },
    {
      "inputs": [],
      "name": "totalSupply",
      "outputs": [
        {
          "internalType": "uint256",
          "name": "",
          "type": "uint256"
        }
      ],
      "stateMutability": "view",
      "type": "function",
      "constant": true
    },
    {
      "inputs": [
        {
          "internalType": "address",
          "name": "from",
          "type": "address"
        },
        {
          "internalType": "address",
          "name": "to",
          "type": "address"
        },
        {
          "internalType": "uint256",
          "name": "tokenId",
          "type": "uint256"
        }
      ],
      "name": "transferFrom",
      "outputs": [],
      "stateMutability": "nonpayable",
      "type": "function"
    },
    {
      "inputs": [
        {
          "internalType": "address",
          "name": "_pranaHelperAddress",
          "type": "address"
        }
      ],
      "name": "setPranaHelperAddress",
      "outputs": [],
      "stateMutability": "nonpayable",
      "type": "function"
    },
    {
      "inputs": [
        {
          "internalType": "string",
          "name": "_encryptedBookDataHash",
          "type": "string"
        },
        {
          "internalType": "uint256",
          "name": "_isbn",
          "type": "uint256"
        },
        {
          "internalType": "uint256",
          "name": "_price",
          "type": "uint256"
        },
        {
          "internalType": "string",
          "name": "_unencryptedBookDetailsCID",
          "type": "string"
        },
        {
          "internalType": "uint256",
          "name": "_transactionCut",
          "type": "uint256"
        }
      ],
      "name": "publishBook",
      "outputs": [],
      "stateMutability": "nonpayable",
      "type": "function"
    },
    {
      "inputs": [
        {
          "internalType": "uint256",
          "name": "_isbn",
          "type": "uint256"
        }
      ],
      "name": "directPurchase",
      "outputs": [
        {
          "internalType": "bool",
          "name": "",
          "type": "bool"
        }
      ],
      "stateMutability": "payable",
      "type": "function",
      "payable": true
    },
    {
      "inputs": [
        {
          "internalType": "uint256",
          "name": "salePrice",
          "type": "uint256"
        },
        {
          "internalType": "uint256",
          "name": "tokenId",
          "type": "uint256"
        }
      ],
      "name": "putTokenForSale",
      "outputs": [],
      "stateMutability": "nonpayable",
      "type": "function"
    },
    {
      "inputs": [
        {
          "internalType": "uint256",
          "name": "tokenId",
          "type": "uint256"
        },
        {
          "internalType": "address",
          "name": "_tokenRecipient",
          "type": "address"
        }
      ],
      "name": "buyToken",
      "outputs": [],
      "stateMutability": "payable",
      "type": "function",
      "payable": true
    },
    {
      "inputs": [
        {
          "internalType": "uint256",
          "name": "_newPrice",
          "type": "uint256"
        },
        {
          "internalType": "uint256",
          "name": "tokenId",
          "type": "uint256"
        }
      ],
      "name": "putForRent",
      "outputs": [],
      "stateMutability": "nonpayable",
      "type": "function"
    },
    {
      "inputs": [
        {
          "internalType": "uint256",
          "name": "tokenId",
          "type": "uint256"
        }
      ],
      "name": "rentToken",
      "outputs": [],
      "stateMutability": "payable",
      "type": "function",
      "payable": true
    },
    {
      "inputs": [
        {
          "internalType": "uint256",
          "name": "tokenId",
          "type": "uint256"
        }
      ],
      "name": "consumeContent",
      "outputs": [
        {
          "internalType": "string",
          "name": "",
          "type": "string"
        }
      ],
      "stateMutability": "view",
      "type": "function",
      "constant": true
    },
    {
      "inputs": [],
      "name": "withdrawBalance",
      "outputs": [],
      "stateMutability": "payable",
      "type": "function",
      "payable": true
    },
    {
      "inputs": [],
      "name": "viewBalance",
      "outputs": [
        {
          "internalType": "uint256",
          "name": "",
          "type": "uint256"
        }
      ],
      "stateMutability": "view",
      "type": "function",
      "constant": true
    },
    {
      "inputs": [
        {
          "internalType": "uint256",
          "name": "_tokenId",
          "type": "uint256"
        }
      ],
      "name": "viewTokenBookDetails",
      "outputs": [
        {
          "internalType": "string",
          "name": "",
          "type": "string"
        }
      ],
      "stateMutability": "view",
      "type": "function",
      "constant": true
    }
  ],
  "bytecode": "0x60806040523480156200001157600080fd5b506040518060400160405280600a81526020017f5072616e61426f6f6b73000000000000000000000000000000000000000000008152506040518060400160405280600381526020017f5042540000000000000000000000000000000000000000000000000000000000815250620000966301ffc9a760e01b6200016160201b60201c565b8160069080519060200190620000ae9291906200026a565b508060079080519060200190620000c79291906200026a565b50620000e06380ac58cd60e01b6200016160201b60201c565b620000f8635b5e139f60e01b6200016160201b60201c565b6200011063780e9d6360e01b6200016160201b60201c565b505033600b60006101000a81548173ffffffffffffffffffffffffffffffffffffffff021916908373ffffffffffffffffffffffffffffffffffffffff160217905550600a600c8190555062000310565b63ffffffff60e01b817bffffffffffffffffffffffffffffffffffffffffffffffffffffffff19161415620001fe576040517f08c379a000000000000000000000000000000000000000000000000000000000815260040180806020018281038252601c8152602001807f4552433136353a20696e76616c696420696e746572666163652069640000000081525060200191505060405180910390fd5b6001600080837bffffffffffffffffffffffffffffffffffffffffffffffffffffffff19167bffffffffffffffffffffffffffffffffffffffffffffffffffffffff1916815260200190815260200160002060006101000a81548160ff02191690831515021790555050565b828054600181600116156101000203166002900490600052602060002090601f016020900481019282601f10620002ad57805160ff1916838001178555620002de565b82800160010185558215620002de579182015b82811115620002dd578251825591602001919060010190620002c0565b5b509050620002ed9190620002f1565b5090565b5b808211156200030c576000816000905550600101620002f2565b5090565b614ceb80620003206000396000f3fe6080604052600436106101b75760003560e01c80636e8f0363116100ec578063c87b56dd1161008a578063e985e9c511610064578063e985e9c514610d43578063eb4880f414610dca578063ee88248914610e1b578063f01a489914610e60576101b7565b8063c87b56dd14610bad578063d1e3069314610c61578063df2581b814610c8f576101b7565b806395d89b41116100c657806395d89b41146108fa578063a22cb4651461098a578063ac0770d6146109e7578063b88d4fde14610a9b576101b7565b80636e8f03631461080257806370a08231146108475780639134709e146108ac576101b7565b8063343ea626116101595780634f6ccce7116101335780634f6ccce7146106b45780635fd8c710146107035780636352211e1461070d5780636c0360eb14610772576101b7565b8063343ea626146104915780633ff1e05b1461060e57806342842e0e14610639576101b7565b8063095ea7b311610195578063095ea7b31461032157806318160ddd1461037c57806323b872dd146103a75780632f745c5914610422576101b7565b806301ffc9a7146101bc57806306fdde031461022c578063081812fc146102bc575b600080fd5b3480156101c857600080fd5b50610214600480360360208110156101df57600080fd5b8101908080357bffffffffffffffffffffffffffffffffffffffffffffffffffffffff19169060200190929190505050610ea4565b60405180821515815260200191505060405180910390f35b34801561023857600080fd5b50610241610f0b565b6040518080602001828103825283818151815260200191508051906020019080838360005b83811015610281578082015181840152602081019050610266565b50505050905090810190601f1680156102ae5780820380516001836020036101000a031916815260200191505b509250505060405180910390f35b3480156102c857600080fd5b506102f5600480360360208110156102df57600080fd5b8101908080359060200190929190505050610fad565b604051808273ffffffffffffffffffffffffffffffffffffffff16815260200191505060405180910390f35b34801561032d57600080fd5b5061037a6004803603604081101561034457600080fd5b81019080803573ffffffffffffffffffffffffffffffffffffffff16906020019092919080359060200190929190505050611048565b005b34801561038857600080fd5b5061039161118c565b6040518082815260200191505060405180910390f35b3480156103b357600080fd5b50610420600480360360608110156103ca57600080fd5b81019080803573ffffffffffffffffffffffffffffffffffffffff169060200190929190803573ffffffffffffffffffffffffffffffffffffffff1690602001909291908035906020019092919050505061119d565b005b34801561042e57600080fd5b5061047b6004803603604081101561044557600080fd5b81019080803573ffffffffffffffffffffffffffffffffffffffff16906020019092919080359060200190929190505050611213565b6040518082815260200191505060405180910390f35b34801561049d57600080fd5b5061060c600480360360a08110156104b457600080fd5b81019080803590602001906401000000008111156104d157600080fd5b8201836020820111156104e357600080fd5b8035906020019184600183028401116401000000008311171561050557600080fd5b91908080601f016020809104026020016040519081016040528093929190818152602001838380828437600081840152601f19601f82011690508083019250505050505050919291929080359060200190929190803590602001909291908035906020019064010000000081111561057c57600080fd5b82018360208201111561058e57600080fd5b803590602001918460018302840111640100000000831117156105b057600080fd5b91908080601f016020809104026020016040519081016040528093929190818152602001838380828437600081840152601f19601f8201169050808301925050505050505091929192908035906020019092919050505061126e565b005b34801561061a57600080fd5b50610623611542565b6040518082815260200191505060405180910390f35b34801561064557600080fd5b506106b26004803603606081101561065c57600080fd5b81019080803573ffffffffffffffffffffffffffffffffffffffff169060200190929190803573ffffffffffffffffffffffffffffffffffffffff16906020019092919080359060200190929190505050611589565b005b3480156106c057600080fd5b506106ed600480360360208110156106d757600080fd5b81019080803590602001909291905050506115a9565b6040518082815260200191505060405180910390f35b61070b6115cc565b005b34801561071957600080fd5b506107466004803603602081101561073057600080fd5b8101908080359060200190929190505050611731565b604051808273ffffffffffffffffffffffffffffffffffffffff16815260200191505060405180910390f35b34801561077e57600080fd5b50610787611768565b6040518080602001828103825283818151815260200191508051906020019080838360005b838110156107c75780820151818401526020810190506107ac565b50505050905090810190601f1680156107f45780820380516001836020036101000a031916815260200191505b509250505060405180910390f35b34801561080e57600080fd5b506108456004803603604081101561082557600080fd5b81019080803590602001909291908035906020019092919050505061180a565b005b34801561085357600080fd5b506108966004803603602081101561086a57600080fd5b81019080803573ffffffffffffffffffffffffffffffffffffffff169060200190929190505050611af9565b6040518082815260200191505060405180910390f35b6108f8600480360360408110156108c257600080fd5b8101908080359060200190929190803573ffffffffffffffffffffffffffffffffffffffff169060200190929190505050611bce565b005b34801561090657600080fd5b5061090f611d32565b6040518080602001828103825283818151815260200191508051906020019080838360005b8381101561094f578082015181840152602081019050610934565b50505050905090810190601f16801561097c5780820380516001836020036101000a031916815260200191505b509250505060405180910390f35b34801561099657600080fd5b506109e5600480360360408110156109ad57600080fd5b81019080803573ffffffffffffffffffffffffffffffffffffffff169060200190929190803515159060200190929190505050611dd4565b005b3480156109f357600080fd5b50610a2060048036036020811015610a0a57600080fd5b8101908080359060200190929190505050611f8a565b6040518080602001828103825283818151815260200191508051906020019080838360005b83811015610a60578082015181840152602081019050610a45565b50505050905090810190601f168015610a8d5780820380516001836020036101000a031916815260200191505b509250505060405180910390f35b348015610aa757600080fd5b50610bab60048036036080811015610abe57600080fd5b81019080803573ffffffffffffffffffffffffffffffffffffffff169060200190929190803573ffffffffffffffffffffffffffffffffffffffff1690602001909291908035906020019092919080359060200190640100000000811115610b2557600080fd5b820183602082011115610b3757600080fd5b80359060200191846001830284011164010000000083111715610b5957600080fd5b91908080601f016020809104026020016040519081016040528093929190818152602001838380828437600081840152601f19601f820116905080830192505050505050509192919290505050612147565b005b348015610bb957600080fd5b50610be660048036036020811015610bd057600080fd5b81019080803590602001909291905050506121bf565b6040518080602001828103825283818151815260200191508051906020019080838360005b83811015610c26578082015181840152602081019050610c0b565b50505050905090810190601f168015610c535780820380516001836020036101000a031916815260200191505b509250505060405180910390f35b610c8d60048036036020811015610c7757600080fd5b81019080803590602001909291905050506124a8565b005b348015610c9b57600080fd5b50610cc860048036036020811015610cb257600080fd5b8101908080359060200190929190505050612758565b6040518080602001828103825283818151815260200191508051906020019080838360005b83811015610d08578082015181840152602081019050610ced565b50505050905090810190601f168015610d355780820380516001836020036101000a031916815260200191505b509250505060405180910390f35b348015610d4f57600080fd5b50610db260048036036040811015610d6657600080fd5b81019080803573ffffffffffffffffffffffffffffffffffffffff169060200190929190803573ffffffffffffffffffffffffffffffffffffffff169060200190929190505050612b38565b60405180821515815260200191505060405180910390f35b348015610dd657600080fd5b50610e1960048036036020811015610ded57600080fd5b81019080803573ffffffffffffffffffffffffffffffffffffffff169060200190929190505050612bcc565b005b348015610e2757600080fd5b50610e5e60048036036040811015610e3e57600080fd5b810190808035906020019092919080359060200190929190505050612cb6565b005b610e8c60048036036020811015610e7657600080fd5b8101908080359060200190929190505050612f10565b60405180821515815260200191505060405180910390f35b6000806000837bffffffffffffffffffffffffffffffffffffffffffffffffffffffff19167bffffffffffffffffffffffffffffffffffffffffffffffffffffffff1916815260200190815260200160002060009054906101000a900460ff169050919050565b606060068054600181600116156101000203166002900480601f016020809104026020016040519081016040528092919081815260200182805460018160011615610100020316600290048015610fa35780601f10610f7857610100808354040283529160200191610fa3565b820191906000526020600020905b815481529060010190602001808311610f8657829003601f168201915b5050505050905090565b6000610fb88261324a565b61100d576040517f08c379a000000000000000000000000000000000000000000000000000000000815260040180806020018281038252602c815260200180614b41602c913960400191505060405180910390fd5b6004600083815260200190815260200160002060009054906101000a900473ffffffffffffffffffffffffffffffffffffffff169050919050565b600061105382611731565b90508073ffffffffffffffffffffffffffffffffffffffff168373ffffffffffffffffffffffffffffffffffffffff1614156110da576040517f08c379a0000000000000000000000000000000000000000000000000000000008152600401808060200182810382526021815260200180614c036021913960400191505060405180910390fd5b8073ffffffffffffffffffffffffffffffffffffffff166110f9613267565b73ffffffffffffffffffffffffffffffffffffffff161480611128575061112781611122613267565b612b38565b5b61117d576040517f08c379a0000000000000000000000000000000000000000000000000000000008152600401808060200182810382526038815260200180614a266038913960400191505060405180910390fd5b611187838361326f565b505050565b60006111986002613328565b905090565b6111ae6111a8613267565b8261333d565b611203576040517f08c379a0000000000000000000000000000000000000000000000000000000008152600401808060200182810382526031815260200180614c246031913960400191505060405180910390fd5b61120e838383613431565b505050565b600061126682600160008673ffffffffffffffffffffffffffffffffffffffff1673ffffffffffffffffffffffffffffffffffffffff16815260200190815260200160002061367490919063ffffffff16565b905092915050565b600073ffffffffffffffffffffffffffffffffffffffff16600e600086815260200190815260200160002060020160009054906101000a900473ffffffffffffffffffffffffffffffffffffffff1673ffffffffffffffffffffffffffffffffffffffff1614611329576040517f08c379a00000000000000000000000000000000000000000000000000000000081526004018080602001828103825260258152602001806148e76025913960400191505060405180910390fd5b6000811180156113395750605081105b61138e576040517f08c379a000000000000000000000000000000000000000000000000000000000815260040180806020018281038252602c815260200180614c55602c913960400191505060405180910390fd5b84600e600086815260200190815260200160002060000190805190602001906113b89291906146e2565b5033600e600086815260200190815260200160002060020160006101000a81548173ffffffffffffffffffffffffffffffffffffffff021916908373ffffffffffffffffffffffffffffffffffffffff16021790555082600e60008681526020019081526020016000206003018190555081600e600086815260200190815260200160002060010190805190602001906114539291906146e2565b5080600e6000868152602001908152602001600020600401819055506000600e600086815260200190815260200160002060050181905550816040518082805190602001908083835b602083106114bf578051825260208201915060208101905060208303925061149c565b6001836020036101000a0380198251168184511680821785525050505050509050019150506040518091039020843373ffffffffffffffffffffffffffffffffffffffff167fc38b33b0a46afde4140743a79995b9c17af3a30667678fc5280210c474e8d6f0866040518082815260200191505060405180910390a45050505050565b6000601060003373ffffffffffffffffffffffffffffffffffffffff1673ffffffffffffffffffffffffffffffffffffffff16815260200190815260200160002054905090565b6115a483838360405180602001604052806000815250612147565b505050565b6000806115c083600261368e90919063ffffffff16565b50905080915050919050565b6000601060003373ffffffffffffffffffffffffffffffffffffffff1673ffffffffffffffffffffffffffffffffffffffff1681526020019081526020016000205411611664576040517f08c379a00000000000000000000000000000000000000000000000000000000081526004018080602001828103825260268152602001806148686026913960400191505060405180910390fd5b3373ffffffffffffffffffffffffffffffffffffffff166108fc601060003373ffffffffffffffffffffffffffffffffffffffff1673ffffffffffffffffffffffffffffffffffffffff168152602001908152602001600020549081150290604051600060405180830381858888f193505050501580156116e9573d6000803e3d6000fd5b506000601060003373ffffffffffffffffffffffffffffffffffffffff1673ffffffffffffffffffffffffffffffffffffffff16815260200190815260200160002081905550565b600061176182604051806060016040528060298152602001614ab56029913960026136ba9092919063ffffffff16565b9050919050565b606060098054600181600116156101000203166002900480601f0160208091040260200160405190810160405280929190818152602001828054600181600116156101000203166002900480156118005780601f106117d557610100808354040283529160200191611800565b820191906000526020600020905b8154815290600101906020018083116117e357829003601f168201915b5050505050905090565b61181381611731565b73ffffffffffffffffffffffffffffffffffffffff163373ffffffffffffffffffffffffffffffffffffffff16146118b3576040517f08c379a000000000000000000000000000000000000000000000000000000000815260040180806020018281038252601e8152602001807f596f7520617265206e6f74207468697320746f6b656e2773206f776e6572000081525060200191505060405180910390fd5b60001515600f600083815260200190815260200160002060030160009054906101000a900460ff16151514611933576040517f08c379a000000000000000000000000000000000000000000000000000000000815260040180806020018281038252603881526020018061490c6038913960400191505060405180910390fd5b600073ffffffffffffffffffffffffffffffffffffffff16600f600083815260200190815260200160002060050160019054906101000a900473ffffffffffffffffffffffffffffffffffffffff1673ffffffffffffffffffffffffffffffffffffffff1614611a1057600c54600f600083815260200190815260200160002060060154014311611a0f576040517f08c379a000000000000000000000000000000000000000000000000000000000815260040180806020018281038252603e815260200180614bc5603e913960400191505060405180910390fd5b5b81600f6000838152602001908152602001600020600401819055506001600f600083815260200190815260200160002060050160006101000a81548160ff0219169083151502179055506000600f600083815260200190815260200160002060050160016101000a81548173ffffffffffffffffffffffffffffffffffffffff021916908373ffffffffffffffffffffffffffffffffffffffff16021790555080600f600083815260200190815260200160002060000154837fe90ddca2005d74ee3e3ada587c65dfcab2f807f66782aa2b197f196ebc05217460405160405180910390a45050565b60008073ffffffffffffffffffffffffffffffffffffffff168273ffffffffffffffffffffffffffffffffffffffff161415611b80576040517f08c379a000000000000000000000000000000000000000000000000000000000815260040180806020018281038252602a815260200180614a8b602a913960400191505060405180910390fd5b611bc7600160008473ffffffffffffffffffffffffffffffffffffffff1673ffffffffffffffffffffffffffffffffffffffff1681526020019081526020016000206136d9565b9050919050565b60011515600f600084815260200190815260200160002060030160009054906101000a900460ff16151514611c4e576040517f08c379a00000000000000000000000000000000000000000000000000000000081526004018080602001828103825260368152602001806147d46036913960400191505060405180910390fd5b600f600083815260200190815260200160002060020154341015611cbd576040517f08c379a00000000000000000000000000000000000000000000000000000000081526004018080602001828103825260248152602001806149996024913960400191505060405180910390fd5b611cd0611cc983611731565b8284611589565b6000600f600084815260200190815260200160002060030160006101000a81548160ff0219169083151502179055506000600f600084815260200190815260200160002060050160006101000a81548160ff0219169083151502179055505050565b606060078054600181600116156101000203166002900480601f016020809104026020016040519081016040528092919081815260200182805460018160011615610100020316600290048015611dca5780601f10611d9f57610100808354040283529160200191611dca565b820191906000526020600020905b815481529060010190602001808311611dad57829003601f168201915b5050505050905090565b611ddc613267565b73ffffffffffffffffffffffffffffffffffffffff168273ffffffffffffffffffffffffffffffffffffffff161415611e7d576040517f08c379a00000000000000000000000000000000000000000000000000000000081526004018080602001828103825260198152602001807f4552433732313a20617070726f766520746f2063616c6c65720000000000000081525060200191505060405180910390fd5b8060056000611e8a613267565b73ffffffffffffffffffffffffffffffffffffffff1673ffffffffffffffffffffffffffffffffffffffff16815260200190815260200160002060008473ffffffffffffffffffffffffffffffffffffffff1673ffffffffffffffffffffffffffffffffffffffff16815260200190815260200160002060006101000a81548160ff0219169083151502179055508173ffffffffffffffffffffffffffffffffffffffff16611f37613267565b73ffffffffffffffffffffffffffffffffffffffff167f17307eab39ab6107e8899845ad3d59bd9653f200f220920489ca2b5937696c318360405180821515815260200191505060405180910390a35050565b6060600073ffffffffffffffffffffffffffffffffffffffff16600e6000600f600086815260200190815260200160002060000154815260200190815260200160002060020160009054906101000a900473ffffffffffffffffffffffffffffffffffffffff1673ffffffffffffffffffffffffffffffffffffffff16141561207b576040517f08c379a00000000000000000000000000000000000000000000000000000000081526004018080602001828103825260208152602001807f5468697320626f6f6b206973206e6f74206f6e2074686520706c6174666f726d81525060200191505060405180910390fd5b600e6000600f60008581526020019081526020016000206000015481526020019081526020016000206001018054600181600116156101000203166002900480601f01602080910402602001604051908101604052809291908181526020018280546001816001161561010002031660029004801561213b5780601f106121105761010080835404028352916020019161213b565b820191906000526020600020905b81548152906001019060200180831161211e57829003601f168201915b50505050509050919050565b612158612152613267565b8361333d565b6121ad576040517f08c379a0000000000000000000000000000000000000000000000000000000008152600401808060200182810382526031815260200180614c246031913960400191505060405180910390fd5b6121b9848484846136ee565b50505050565b60606121ca8261324a565b61221f576040517f08c379a000000000000000000000000000000000000000000000000000000000815260040180806020018281038252602f815260200180614b96602f913960400191505060405180910390fd5b6060600860008481526020019081526020016000208054600181600116156101000203166002900480601f0160208091040260200160405190810160405280929190818152602001828054600181600116156101000203166002900480156122c85780601f1061229d576101008083540402835291602001916122c8565b820191906000526020600020905b8154815290600101906020018083116122ab57829003601f168201915b505050505090506000600980546001816001161561010002031660029004905014156122f757809150506124a3565b6000815111156123d05760098160405160200180838054600181600116156101000203166002900480156123625780601f10612340576101008083540402835291820191612362565b820191906000526020600020905b81548152906001019060200180831161234e575b505082805190602001908083835b602083106123935780518252602082019150602081019050602083039250612370565b6001836020036101000a038019825116818451168082178552505050505050905001925050506040516020818303038152906040529150506124a3565b60096123db84613760565b60405160200180838054600181600116156101000203166002900480156124395780601f10612417576101008083540402835291820191612439565b820191906000526020600020905b815481529060010190602001808311612425575b505082805190602001908083835b6020831061246a5780518252602082019150602081019050602083039250612447565b6001836020036101000a038019825116818451168082178552505050505050905001925050506040516020818303038152906040529150505b919050565b60011515600f600083815260200190815260200160002060050160009054906101000a900460ff16151514612528576040517f08c379a00000000000000000000000000000000000000000000000000000000081526004018080602001828103825260328152602001806147806032913960400191505060405180910390fd5b600073ffffffffffffffffffffffffffffffffffffffff16600f600083815260200190815260200160002060050160019054906101000a900473ffffffffffffffffffffffffffffffffffffffff1673ffffffffffffffffffffffffffffffffffffffff16146125e3576040517f08c379a000000000000000000000000000000000000000000000000000000000815260040180806020018281038252602c81526020018061483c602c913960400191505060405180910390fd5b600f600082815260200190815260200160002060040154341015612652576040517f08c379a000000000000000000000000000000000000000000000000000000000815260040180806020018281038252602d815260200180614a5e602d913960400191505060405180910390fd5b33600f600083815260200190815260200160002060050160016101000a81548173ffffffffffffffffffffffffffffffffffffffff021916908373ffffffffffffffffffffffffffffffffffffffff16021790555043600f6000838152602001908152602001600020600601819055506000600f600083815260200190815260200160002060050160006101000a81548160ff0219169083151502179055506126fa816138a7565b3373ffffffffffffffffffffffffffffffffffffffff1681600f6000848152602001908152602001600020600001547f5faac23f0b6536f9cabd35fe9faf70af0b2adf251378e0b858966f80bebb024260405160405180910390a450565b60603373ffffffffffffffffffffffffffffffffffffffff1661277a83611731565b73ffffffffffffffffffffffffffffffffffffffff1614806127fd57503373ffffffffffffffffffffffffffffffffffffffff16600f600084815260200190815260200160002060050160019054906101000a900473ffffffffffffffffffffffffffffffffffffffff1673ffffffffffffffffffffffffffffffffffffffff16145b612852576040517f08c379a00000000000000000000000000000000000000000000000000000000081526004018080602001828103825260298152602001806149706029913960400191505060405180910390fd5b3373ffffffffffffffffffffffffffffffffffffffff1661287283611731565b73ffffffffffffffffffffffffffffffffffffffff16141561297057600073ffffffffffffffffffffffffffffffffffffffff16600f600084815260200190815260200160002060050160019054906101000a900473ffffffffffffffffffffffffffffffffffffffff1673ffffffffffffffffffffffffffffffffffffffff161461296b57600c54600f60008481526020019081526020016000206006015401431161296a576040517f08c379a0000000000000000000000000000000000000000000000000000000008152600401808060200182810382526041815260200180614ade6041913960600191505060405180910390fd5b5b612a6c565b3373ffffffffffffffffffffffffffffffffffffffff16600f600084815260200190815260200160002060050160019054906101000a900473ffffffffffffffffffffffffffffffffffffffff1673ffffffffffffffffffffffffffffffffffffffff161415612a6b57600c54600f60008481526020019081526020016000206006015401431115612a6a576040517f08c379a000000000000000000000000000000000000000000000000000000000815260040180806020018281038252601e8152602001807f596f75722072656e74616c20706572696f64206861732065787069726564000081525060200191505060405180910390fd5b5b5b600e6000600f60008581526020019081526020016000206000015481526020019081526020016000206000018054600181600116156101000203166002900480601f016020809104026020016040519081016040528092919081815260200182805460018160011615610100020316600290048015612b2c5780601f10612b0157610100808354040283529160200191612b2c565b820191906000526020600020905b815481529060010190602001808311612b0f57829003601f168201915b50505050509050919050565b6000600560008473ffffffffffffffffffffffffffffffffffffffff1673ffffffffffffffffffffffffffffffffffffffff16815260200190815260200160002060008373ffffffffffffffffffffffffffffffffffffffff1673ffffffffffffffffffffffffffffffffffffffff16815260200190815260200160002060009054906101000a900460ff16905092915050565b600b60009054906101000a900473ffffffffffffffffffffffffffffffffffffffff1673ffffffffffffffffffffffffffffffffffffffff163373ffffffffffffffffffffffffffffffffffffffff1614612c72576040517f08c379a000000000000000000000000000000000000000000000000000000000815260040180806020018281038252603581526020018061488e6035913960400191505060405180910390fd5b80600d60006101000a81548173ffffffffffffffffffffffffffffffffffffffff021916908373ffffffffffffffffffffffffffffffffffffffff16021790555050565b612cbf81611731565b73ffffffffffffffffffffffffffffffffffffffff163373ffffffffffffffffffffffffffffffffffffffff1614612d5f576040517f08c379a000000000000000000000000000000000000000000000000000000000815260040180806020018281038252601e8152602001807f596f7520617265206e6f74207468697320746f6b656e2773206f776e6572000081525060200191505060405180910390fd5b60001515600f600083815260200190815260200160002060050160009054906101000a900460ff16151514612ddf576040517f08c379a0000000000000000000000000000000000000000000000000000000008152600401808060200182810382526035815260200180614c816035913960400191505060405180910390fd5b43600c54600f6000848152602001908152602001600020600601540110612e51576040517f08c379a000000000000000000000000000000000000000000000000000000000815260040180806020018281038252602a8152602001806149bd602a913960400191505060405180910390fd5b81600f6000838152602001908152602001600020600201819055506001600f600083815260200190815260200160002060030160006101000a81548160ff021916908315150217905550612ec7600d60009054906101000a900473ffffffffffffffffffffffffffffffffffffffff1682611048565b80600f600083815260200190815260200160002060000154837f9c8f609c71aa14f0f8cf09f1c3e8fbbbe92010d555840a9bb980359ee03c896360405160405180910390a45050565b60008073ffffffffffffffffffffffffffffffffffffffff16600e600084815260200190815260200160002060020160009054906101000a900473ffffffffffffffffffffffffffffffffffffffff1673ffffffffffffffffffffffffffffffffffffffff161415612fea576040517f08c379a00000000000000000000000000000000000000000000000000000000081526004018080602001828103825260158152602001807f4953424e20646f6573206e6f742065786973742021000000000000000000000081525060200191505060405180910390fd5b600e600083815260200190815260200160002060030154341015613059576040517f08c379a000000000000000000000000000000000000000000000000000000000815260040180806020018281038252603f8152602001806149e7603f913960400191505060405180910390fd5b6000613065600a613a0a565b90506130713382613a18565b61307b600a613a36565b600e60008481526020019081526020016000206005016000815480929190600101919050555082600f600083815260200190815260200160002060000181905550600e600084815260200190815260200160002060050154600f6000838152602001908152602001600020600101819055506000600f600083815260200190815260200160002060030160006101000a81548160ff0219169083151502179055506000600f600083815260200190815260200160002060050160006101000a81548160ff0219169083151502179055506000600f600083815260200190815260200160002060050160016101000a81548173ffffffffffffffffffffffffffffffffffffffff021916908373ffffffffffffffffffffffffffffffffffffffff1602179055506000600f6000838152602001908152602001600020600601819055503460106000600e600087815260200190815260200160002060020160009054906101000a900473ffffffffffffffffffffffffffffffffffffffff1673ffffffffffffffffffffffffffffffffffffffff1673ffffffffffffffffffffffffffffffffffffffff168152602001908152602001600020600082825401925050819055506001915050919050565b6000613260826002613a4c90919063ffffffff16565b9050919050565b600033905090565b816004600083815260200190815260200160002060006101000a81548173ffffffffffffffffffffffffffffffffffffffff021916908373ffffffffffffffffffffffffffffffffffffffff160217905550808273ffffffffffffffffffffffffffffffffffffffff166132e283611731565b73ffffffffffffffffffffffffffffffffffffffff167f8c5be1e5ebec7d5bd14f71427d1e84f3dd0314c0f7b2291e5b200ac8c7c3b92560405160405180910390a45050565b600061333682600001613a66565b9050919050565b60006133488261324a565b61339d576040517f08c379a000000000000000000000000000000000000000000000000000000000815260040180806020018281038252602c815260200180614944602c913960400191505060405180910390fd5b60006133a883611731565b90508073ffffffffffffffffffffffffffffffffffffffff168473ffffffffffffffffffffffffffffffffffffffff16148061341757508373ffffffffffffffffffffffffffffffffffffffff166133ff84610fad565b73ffffffffffffffffffffffffffffffffffffffff16145b8061342857506134278185612b38565b5b91505092915050565b8273ffffffffffffffffffffffffffffffffffffffff1661345182611731565b73ffffffffffffffffffffffffffffffffffffffff16146134bd576040517f08c379a0000000000000000000000000000000000000000000000000000000008152600401808060200182810382526029815260200180614b6d6029913960400191505060405180910390fd5b600073ffffffffffffffffffffffffffffffffffffffff168273ffffffffffffffffffffffffffffffffffffffff161415613543576040517f08c379a00000000000000000000000000000000000000000000000000000000081526004018080602001828103825260248152602001806148c36024913960400191505060405180910390fd5b61354e838383613a77565b61355960008261326f565b6135aa81600160008673ffffffffffffffffffffffffffffffffffffffff1673ffffffffffffffffffffffffffffffffffffffff168152602001908152602001600020613af590919063ffffffff16565b506135fc81600160008573ffffffffffffffffffffffffffffffffffffffff1673ffffffffffffffffffffffffffffffffffffffff168152602001908152602001600020613b0f90919063ffffffff16565b5061361381836002613b299092919063ffffffff16565b50808273ffffffffffffffffffffffffffffffffffffffff168473ffffffffffffffffffffffffffffffffffffffff167fddf252ad1be2c89b69c2b068fc378daa952ba7f163c4a11628f55a4df523b3ef60405160405180910390a4505050565b60006136838360000183613b5e565b60001c905092915050565b6000806000806136a18660000186613be1565b915091508160001c8160001c9350935050509250929050565b60006136cd846000018460001b84613c7a565b60001c90509392505050565b60006136e782600001613d70565b9050919050565b6136f9848484613431565b61370584848484613d81565b61375a576040517f08c379a000000000000000000000000000000000000000000000000000000000815260040180806020018281038252603281526020018061480a6032913960400191505060405180910390fd5b50505050565b606060008214156137a8576040518060400160405280600181526020017f300000000000000000000000000000000000000000000000000000000000000081525090506138a2565b600082905060005b600082146137d2578080600101915050600a82816137ca57fe5b0491506137b0565b60608167ffffffffffffffff811180156137eb57600080fd5b506040519080825280601f01601f19166020018201604052801561381e5781602001600182028036833780820191505090505b50905060006001830390508593505b6000841461389a57600a848161383f57fe5b0660300160f81b8282806001900393508151811061385957fe5b60200101907effffffffffffffffffffffffffffffffffffffffffffffffffffffffffffff1916908160001a905350600a848161389257fe5b04935061382d565b819450505050505b919050565b606434816138b157fe5b04600e6000600f6000858152602001908152602001600020600001548152602001908152602001600020600401540260106000600e6000600f600087815260200190815260200160002060000154815260200190815260200160002060020160009054906101000a900473ffffffffffffffffffffffffffffffffffffffff1673ffffffffffffffffffffffffffffffffffffffff1673ffffffffffffffffffffffffffffffffffffffff168152602001908152602001600020600082825401925050819055506064348161398257fe5b04600e6000600f600085815260200190815260200160002060000154815260200190815260200160002060040154023403601060006139c084611731565b73ffffffffffffffffffffffffffffffffffffffff1673ffffffffffffffffffffffffffffffffffffffff1681526020019081526020016000206000828254019250508190555050565b600081600001549050919050565b613a32828260405180602001604052806000815250613f9a565b5050565b6001816000016000828254019250508190555050565b6000613a5e836000018360001b61400b565b905092915050565b600081600001805490509050919050565b600073ffffffffffffffffffffffffffffffffffffffff168373ffffffffffffffffffffffffffffffffffffffff1614158015613ae15750600073ffffffffffffffffffffffffffffffffffffffff168273ffffffffffffffffffffffffffffffffffffffff1614155b15613af057613aef816138a7565b5b505050565b6000613b07836000018360001b61402e565b905092915050565b6000613b21836000018360001b614116565b905092915050565b6000613b55846000018460001b8473ffffffffffffffffffffffffffffffffffffffff1660001b614186565b90509392505050565b600081836000018054905011613bbf576040517f08c379a00000000000000000000000000000000000000000000000000000000081526004018080602001828103825260228152602001806147b26022913960400191505060405180910390fd5b826000018281548110613bce57fe5b9060005260206000200154905092915050565b60008082846000018054905011613c43576040517f08c379a0000000000000000000000000000000000000000000000000000000008152600401808060200182810382526022815260200180614b1f6022913960400191505060405180910390fd5b6000846000018481548110613c5457fe5b906000526020600020906002020190508060000154816001015492509250509250929050565b60008084600101600085815260200190815260200160002054905060008114158390613d41576040517f08c379a00000000000000000000000000000000000000000000000000000000081526004018080602001828103825283818151815260200191508051906020019080838360005b83811015613d06578082015181840152602081019050613ceb565b50505050905090810190601f168015613d335780820380516001836020036101000a031916815260200191505b509250505060405180910390fd5b50846000016001820381548110613d5457fe5b9060005260206000209060020201600101549150509392505050565b600081600001805490509050919050565b6000613da28473ffffffffffffffffffffffffffffffffffffffff16614262565b613daf5760019050613f92565b6060613f1963150b7a0260e01b613dc4613267565b888787604051602401808573ffffffffffffffffffffffffffffffffffffffff1681526020018473ffffffffffffffffffffffffffffffffffffffff16815260200183815260200180602001828103825283818151815260200191508051906020019080838360005b83811015613e48578082015181840152602081019050613e2d565b50505050905090810190601f168015613e755780820380516001836020036101000a031916815260200191505b5095505050505050604051602081830303815290604052907bffffffffffffffffffffffffffffffffffffffffffffffffffffffff19166020820180517bffffffffffffffffffffffffffffffffffffffffffffffffffffffff838183161783525050505060405180606001604052806032815260200161480a603291398773ffffffffffffffffffffffffffffffffffffffff166142ad9092919063ffffffff16565b90506000818060200190516020811015613f3257600080fd5b8101908080519060200190929190505050905063150b7a0260e01b7bffffffffffffffffffffffffffffffffffffffffffffffffffffffff1916817bffffffffffffffffffffffffffffffffffffffffffffffffffffffff191614925050505b949350505050565b613fa483836142c5565b613fb16000848484613d81565b614006576040517f08c379a000000000000000000000000000000000000000000000000000000000815260040180806020018281038252603281526020018061480a6032913960400191505060405180910390fd5b505050565b600080836001016000848152602001908152602001600020541415905092915050565b6000808360010160008481526020019081526020016000205490506000811461410a576000600182039050600060018660000180549050039050600086600001828154811061407957fe5b906000526020600020015490508087600001848154811061409657fe5b90600052602060002001819055506001830187600101600083815260200190815260200160002081905550866000018054806140ce57fe5b60019003818190600052602060002001600090559055866001016000878152602001908152602001600020600090556001945050505050614110565b60009150505b92915050565b600061412283836144b9565b61417b578260000182908060018154018082558091505060019003906000526020600020016000909190919091505582600001805490508360010160008481526020019081526020016000208190555060019050614180565b600090505b92915050565b600080846001016000858152602001908152602001600020549050600081141561422d5784600001604051806040016040528086815260200185815250908060018154018082558091505060019003906000526020600020906002020160009091909190915060008201518160000155602082015181600101555050846000018054905085600101600086815260200190815260200160002081905550600191505061425b565b8285600001600183038154811061424057fe5b90600052602060002090600202016001018190555060009150505b9392505050565b60008060007fc5d2460186f7233c927e7db2dcc703c0e500b653ca82273b7bfad8045d85a47060001b9050833f91508082141580156142a457506000801b8214155b92505050919050565b60606142bc84846000856144dc565b90509392505050565b600073ffffffffffffffffffffffffffffffffffffffff168273ffffffffffffffffffffffffffffffffffffffff161415614368576040517f08c379a00000000000000000000000000000000000000000000000000000000081526004018080602001828103825260208152602001807f4552433732313a206d696e7420746f20746865207a65726f206164647265737381525060200191505060405180910390fd5b6143718161324a565b156143e4576040517f08c379a000000000000000000000000000000000000000000000000000000000815260040180806020018281038252601c8152602001807f4552433732313a20746f6b656e20616c7265616479206d696e7465640000000081525060200191505060405180910390fd5b6143f060008383613a77565b61444181600160008573ffffffffffffffffffffffffffffffffffffffff1673ffffffffffffffffffffffffffffffffffffffff168152602001908152602001600020613b0f90919063ffffffff16565b5061445881836002613b299092919063ffffffff16565b50808273ffffffffffffffffffffffffffffffffffffffff16600073ffffffffffffffffffffffffffffffffffffffff167fddf252ad1be2c89b69c2b068fc378daa952ba7f163c4a11628f55a4df523b3ef60405160405180910390a45050565b600080836001016000848152602001908152602001600020541415905092915050565b60606144e785614262565b614559576040517f08c379a000000000000000000000000000000000000000000000000000000000815260040180806020018281038252601d8152602001807f416464726573733a2063616c6c20746f206e6f6e2d636f6e747261637400000081525060200191505060405180910390fd5b600060608673ffffffffffffffffffffffffffffffffffffffff1685876040518082805190602001908083835b602083106145a95780518252602082019150602081019050602083039250614586565b6001836020036101000a03801982511681845116808217855250505050505090500191505060006040518083038185875af1925050503d806000811461460b576040519150601f19603f3d011682016040523d82523d6000602084013e614610565b606091505b509150915081156146255780925050506146da565b6000815111156146385780518082602001fd5b836040517f08c379a00000000000000000000000000000000000000000000000000000000081526004018080602001828103825283818151815260200191508051906020019080838360005b8381101561469f578082015181840152602081019050614684565b50505050905090810190601f1680156146cc5780820380516001836020036101000a031916815260200191505b509250505060405180910390fd5b949350505050565b828054600181600116156101000203166002900490600052602060002090601f016020900481019282601f1061472357805160ff1916838001178555614751565b82800160010185558215614751579182015b82811115614750578251825591602001919060010190614735565b5b50905061475e9190614762565b5090565b5b8082111561477b576000816000905550600101614763565b509056fe5468697320636f7079206861736e2774206265656e2070757420666f722072656e74696e6720627920746865206f776e6572456e756d657261626c655365743a20696e646578206f7574206f6620626f756e64735468697320746f6b656e206861736e2774206265656e2070757420666f722073616c652062792074686520746f6b656e206f776e65724552433732313a207472616e7366657220746f206e6f6e20455243373231526563656976657220696d706c656d656e7465725468697320636f707920686173206265656e2072656e74656420627920736f6d656f6e6520616c7265616479596f7520646f6e2774206861766520616e792062616c616e636520746f207769746864726177596f7520617265206e6f742074686520636f6e7472616374206f776e657220746f2063616c6c20746869732066756e6374696f6e214552433732313a207472616e7366657220746f20746865207a65726f20616464726573735468697320626f6f6b2068617320616c7265616479206265656e207075626c69736865642143616e277420707574206120636f707920757020666f722072656e74696e67206966206974277320616c7265616479206f6e2073616c65214552433732313a206f70657261746f7220717565727920666f72206e6f6e6578697374656e7420746f6b656e596f7520617265206e6f7420617574686f72697a656420746f2076696577207468697320636f707921596f757220707269636520697320746f6f206c6f7720666f72207468697320746f6b656e54686520637572726e65742072656e74696e6720706572696f64206973206e6f74206f76657220796574496e73756666696369656e742066756e6473202120506c656173652070617920746865207072696365206173207365742062792074686520617574686f722e4552433732313a20617070726f76652063616c6c6572206973206e6f74206f776e6572206e6f7220617070726f76656420666f7220616c6c596f75722070726963652069736e27742073756666696369656e7420746f2072656e74207468697320636f70794552433732313a2062616c616e636520717565727920666f7220746865207a65726f20616464726573734552433732313a206f776e657220717565727920666f72206e6f6e6578697374656e7420746f6b656e5468652072656e74696e6720706572696f64206973206e6f74206f7665722079657420666f7220796f7520746f20636f6e73756d652074686520636f6e74656e74456e756d657261626c654d61703a20696e646578206f7574206f6620626f756e64734552433732313a20617070726f76656420717565727920666f72206e6f6e6578697374656e7420746f6b656e4552433732313a207472616e73666572206f6620746f6b656e2074686174206973206e6f74206f776e4552433732314d657461646174613a2055524920717565727920666f72206e6f6e6578697374656e7420746f6b656e5468652072656e74696e6720706572696f64206973206e6f74206f7665722079657420746f2070757420697420666f722072656e74696e6720616761696e4552433732313a20617070726f76616c20746f2063757272656e74206f776e65724552433732313a207472616e736665722063616c6c6572206973206e6f74206f776e6572206e6f7220617070726f766564596f7572206375742063616e2774206265206d6f7265207468616e20383025206f662074686520746f74616c43616e277420707574206120746f6b656e20666f722073616c65207768696c6520697427732070757420666f722072656e74696e67a2646970667358221220f93b9993c8e04ce11a35d48e5f01c2b2c6d929002bc3f5d059500561c025dca164736f6c634300060c0033",
  "immutableReferences": {},
  "source": "// SPDX-License-Identifier: ISC\n\npragma solidity ^0.6.0;\n\nimport \"../../node_modules/@openzeppelin/contracts/utils/Counters.sol\";\nimport \"../../node_modules/@openzeppelin/contracts/token/ERC721/ERC721.sol\";\n\n\n//prana main contract.\n\n\ncontract prana is ERC721 {\n\n    using Counters for Counters.Counter;\n\n    //to automate tokenId generation\n    Counters.Counter private _tokenIdTracker;\n\n    //AccessControl and Ownable can be added instead of owner if time permits\n    constructor() ERC721(\"PranaBooks\", \"PBT\") public {\n        owner = msg.sender;\n        // edit rentedBlocks to appropriate time/number of blocks before final version\n        // for a two-week rental period, the rentedBlocks would be 100800 blocks.\n        // assuming the block time is 12 seconds on average.\n        rentedBlocks = 10;\n    }\n\n    //address of the contract deployer\n    address owner;\n\n    //rented number of blocks, to count time\n    uint256 rentedBlocks;\n\n    //address of the helper contract\n    address pranaHelperAddress;\n\n    //Modifier for onlyOwner functions\n    //this could be figured out with AccessControl if there's enough time\n    modifier onlyOwner {\n       require(msg.sender == owner, 'You are not the contract owner to call this function!');\n       _;\n    }\n\n    // A nonce to ensure unique id for each new token.\n    //deprecated in favor of _tokenIdTracker\n    // uint256 public nonce;  // might need more work\n\n    // struct to store book details. For each new title.\n    // bytes32(encryptedBookDataHash) - the actual content of the book\n    // bytes32(unencryptedBookDetailsCID) - cid to pull book cover and other details to show the world\n    // This is where the linkage of the contract with storage mechanisms happen\n    // address(publisherAddress) -  address of the content creator/publisher\n    // uint256(bookPrice) - price of the book that the creator asks for direct purchase\n    // uint256(transactionCut) - cut of further transactions on copies\n    // that the creator lay claim to. Stored as a percentage.\n    struct BookInfo{\n        string encryptedBookDataHash;\n        string unencryptedBookDetailsCID;\n        address publisherAddress;\n        uint256 bookPrice;\n        uint256 transactionCut;\n        uint256 bookSales;\n    }\n\n    // mapping for all books\n    // ISBN is the key, its corresponding details is the value\n    mapping(uint256 => BookInfo) internal booksInfo;\n\n    // struct for token details and transactions\n    // uint256(isbn) binds the token to the book it points to\n    // uint256(copyNumber) to count which copy of the book the token is\n    // so that people can brag about owning the 1st copy, 100th copy etc,\n    // add sell them at a premium\n    // uint256(resalePrice) is the price that tokenOwner asks to sell the token\n    // bool(isUpForResale) is to advertise that the token is for sale\n    // uint(rentingPrice) is the price for renting that the tokenOwner sets\n    // bool (isUpForRenting) is to advertise that the token is for renting\n    // address(rentee) so that the tokenOwner doesn't change and the token comes back after a while\n    struct TokenDetails{\n        uint256 isbn;\n        uint256 copyNumber;\n        // resale aspects\n        uint256 resalePrice;\n        bool isUpForResale;\n        //Renting aspects (gonna be hard to properly figure out renting)\n        uint256 rentingPrice;\n        bool isUpForRenting;\n        address rentee;\n        uint256 rentedAtBlock;\n    }\n\n\n    // tokenId to TokenDetails mapping\n    mapping (uint256 => TokenDetails) internal tokenData;\n\n    // account balances, for everyone involved.\n    mapping (address => uint256) internal accountBalance;\n\n\n    //Event to emit when a new book is published with its ISBN and publisher address\n    event BookPublished(address indexed publisher, uint256 indexed isbn, string indexed bookCoverAndDetails, uint256 price);\n\n    //Event to emit when a tokenOwner puts out a token for sale\n    event TokenForSale(uint256 indexed resalePrice, uint256 indexed isbn, uint256 indexed tokenId);\n\n    //Event to emit when the tokenOwner puts out a token for renting\n    event TokenForRenting(uint256 indexed rentingPrice, uint256 indexed isbn, uint256 indexed tokenId);\n\n    //Event to emit when a token is rented\n    event TokenRented(uint256 indexed isbn, uint256 indexed tokenId, address indexed rentee);\n\n    // function to pass in the adddresses of each of the contract\n    // so that they may refer to each other. Crude version\n    function setPranaHelperAddress(address _pranaHelperAddress) public onlyOwner{\n        pranaHelperAddress = _pranaHelperAddress;\n    }\n\n    // overriding _beforeTokenTransfer()\n    // this ensure good behavior whenever a token transfer happens with money involved.\n    // various actors get their cut before ownership is transfered\n    function _beforeTokenTransfer(address from, address to, uint256 tokenId) internal override {\n        if(from != address(0) && to != address(0)){\n            _updateAccountBalances(tokenId);\n        }\n     }\n\n    // an internal function to update the balances for each monetary transaction\n    // not sure if msg.value works well with internal functions\n    function _updateAccountBalances(uint256 tokenId) internal {\n\n        // transactinCut for the author/publisher gets debited\n        accountBalance[booksInfo[tokenData[tokenId].isbn].publisherAddress] += booksInfo[tokenData[tokenId].isbn].transactionCut*(msg.value/100);\n\n        //the remaining money goes to the token owner\n        accountBalance[ownerOf(tokenId)] += msg.value - (booksInfo[tokenData[tokenId].isbn].transactionCut*(msg.value/100));\n\n    }\n\n    //function to add book details into the chain i.e. publish the book\n    function publishBook(\n        string memory _encryptedBookDataHash, //TOCHECK: bytes32 vs bytes memory\n        uint256 _isbn,\n        uint256 _price,\n        string memory _unencryptedBookDetailsCID,\n        uint256 _transactionCut)\n        public {\n        require(booksInfo[_isbn].publisherAddress==address(0), \"This book has already been published!\");\n        require(_transactionCut > 0 && _transactionCut < 80, \"Your cut can't be more than 80% of the total\");\n        booksInfo[_isbn].encryptedBookDataHash = _encryptedBookDataHash;\n        booksInfo[_isbn].publisherAddress = msg.sender;\n        booksInfo[_isbn].bookPrice = _price;\n        booksInfo[_isbn].unencryptedBookDetailsCID = _unencryptedBookDetailsCID;\n        booksInfo[_isbn].transactionCut = _transactionCut;\n        booksInfo[_isbn].bookSales = 0;\n\n        //event that serves as an advertisement\n        //last argument might be needed to change back to price\n        emit BookPublished(msg.sender, _isbn, _unencryptedBookDetailsCID, _price);\n\n    }\n\n    //function to purchase books directly from the publisher.\n    //New tokens will be minted here.\n    //Could be assigned to Minter_Role in AccessControl and redirected from the helper contract\n    function directPurchase(uint256 _isbn) public payable returns (bool) {\n        //to revert back if the buyer doesn't have the price set by the author.\n        require(booksInfo[_isbn].publisherAddress != address(0),\"ISBN does not exist !\");\n        require(msg.value >= booksInfo[_isbn].bookPrice,\"Insufficient funds ! Please pay the price as set by the author.\");\n        //a new tokenId is generated, and a new token is minted with that ID.\n        uint256 tokenId = _tokenIdTracker.current();\n        _safeMint(msg.sender, tokenId);\n        _tokenIdTracker.increment();\n        //once a token's succesfully minted, update the various details.\n        booksInfo[_isbn].bookSales++;\n\n        tokenData[tokenId].isbn = _isbn;\n        tokenData[tokenId].copyNumber = booksInfo[_isbn].bookSales;\n        tokenData[tokenId].isUpForResale = false;\n        tokenData[tokenId].isUpForRenting = false;\n        tokenData[tokenId].rentee = address(0);\n        tokenData[tokenId].rentedAtBlock = 0;\n\n        // the money goes to the plubisher's accountBalance.\n        accountBalance[booksInfo[_isbn].publisherAddress] += msg.value;\n        return true;\n    }\n\n    // function to put a token for sale\n    // a user can update the resalePrice by just putting it up for sale again (may not be needed)\n    function putTokenForSale(uint256 salePrice, uint256 tokenId) public {\n        require(msg.sender == ownerOf(tokenId), \"You are not this token's owner\");\n        require(tokenData[tokenId].isUpForRenting == false,\n        \"Can't put a token for sale while it's put for renting\");\n        require(tokenData[tokenId].rentedAtBlock + rentedBlocks < block.number,\n        \"The currnet renting period is not over yet\");\n        tokenData[tokenId].resalePrice = salePrice;\n        tokenData[tokenId].isUpForResale = true;\n\n        // The helper contract gets approved for token transfer when someone's ready to buy\n        approve(pranaHelperAddress, tokenId);\n        // event that serves as advertisement for all\n        emit TokenForSale(salePrice, tokenData[tokenId].isbn, tokenId);\n    }\n\n    // To buy a token that's been put for sale.\n    // function will always be called by pranaHelper as the approved address for tokenId\n    function buyToken(uint256 tokenId, address _tokenRecipient) public payable {\n        require(tokenData[tokenId].isUpForResale == true,\n        \"This token hasn't been put for sale by the token owner\");\n\n        require(msg.value >= tokenData[tokenId].resalePrice,\n        \"Your price is too low for this token\");\n\n\n        safeTransferFrom(ownerOf(tokenId), _tokenRecipient, tokenId);\n\n        // TODO:\n        // _updateAccountBalances(tokenId) should go into transferFrom()\n        // and safeTransferFrom() functions after mutability error resolution\n\n        //  This went into _beforeTokenTransfer()\n        // _updateAccountBalances(tokenId);\n\n        tokenData[tokenId].isUpForResale = false;\n        tokenData[tokenId].isUpForRenting = false;\n\n    }\n\n    // function to put a copy for renting, ownership doesn't change.\n    function putForRent(uint256 _newPrice, uint256 tokenId) public{\n        require(msg.sender == ownerOf(tokenId), \"You are not this token's owner\");\n        require(tokenData[tokenId].isUpForResale == false,\n        \"Can't put a copy up for renting if it's already on sale!\");\n        if(tokenData[tokenId].rentee != address(0)){\n                require(block.number > tokenData[tokenId].rentedAtBlock + rentedBlocks,\n                \"The renting period is not over yet to put it for renting again\");\n            }\n        tokenData[tokenId].rentingPrice = _newPrice;\n        tokenData[tokenId].isUpForRenting = true;\n        tokenData[tokenId].rentee = address(0);//No one's rented it as of now\n        emit TokenForRenting(_newPrice, tokenData[tokenId].isbn, tokenId);\n    }\n\n    //function to actually rent a copy for content consumption\n    function rentToken(uint256 tokenId) public payable {\n        require(tokenData[tokenId].isUpForRenting == true,\n        \"This copy hasn't been put for renting by the owner\");\n        require(tokenData[tokenId].rentee == address(0),\n        \"This copy has been rented by someone already\");\n        require(msg.value >= tokenData[tokenId].rentingPrice,\n        \"Your price isn't sufficient to rent this copy\");\n\n        tokenData[tokenId].rentee = msg.sender;\n        tokenData[tokenId].rentedAtBlock = block.number;\n        tokenData[tokenId].isUpForRenting = false;\n\n        _updateAccountBalances(tokenId);\n\n        emit TokenRented(tokenData[tokenId].isbn, tokenId, msg.sender);\n\n    }\n\n    //function to actually consume the content  you've bought/rented\n    function consumeContent(uint256 tokenId) public view returns(string memory){\n        require(ownerOf(tokenId) == msg.sender || tokenData[tokenId].rentee == msg.sender,\n        \"You are not authorized to view this copy!\");\n        if(ownerOf(tokenId) == msg.sender){\n            if(tokenData[tokenId].rentee != address(0)){\n                require(block.number > tokenData[tokenId].rentedAtBlock + rentedBlocks,\n                \"The renting period is not over yet for you to consume the content\");\n            }\n        }\n        else if(tokenData[tokenId].rentee == msg.sender){\n            require(block.number <= tokenData[tokenId].rentedAtBlock + rentedBlocks,\n            \"Your rental period has expired\");\n        }\n        return booksInfo[tokenData[tokenId].isbn].encryptedBookDataHash;\n    }\n\n    // function to get the balances stored in contract back into the respective owners' account\n    // this is to mainly to reduce the number of transactions and transaction cost associated with it.\n    // WARNING: Extensive testing required before this can be finalized!\n    function withdrawBalance() public payable{\n        require(accountBalance[msg.sender] > 0, \"You don't have any balance to withdraw\");\n        (msg.sender).transfer(accountBalance[msg.sender]);\n        accountBalance[msg.sender] = 0;\n    }\n\n    //function to view balance\n    function viewBalance() public view returns(uint256){\n        return accountBalance[msg.sender];\n    }\n\n    //function to get book details with the tokenId\n    //returns CID of coverpic+bookname\n    function viewTokenBookDetails(uint256 _tokenId) public view returns (string memory) {\n        require(booksInfo[tokenData[_tokenId].isbn].publisherAddress!=address(0), \"This book is not on the platform\");\n        return booksInfo[tokenData[_tokenId].isbn].unencryptedBookDetailsCID;\n    }\n}\n",
  "sourcePath": "/home/foss/gits/pyr-publisher/contract/contracts/prana.sol",
  "compiler": {
    "name": "solc",
    "version": "0.6.12+commit.27d51765.Emscripten.clang"
  },
  "schemaVersion": "3.2.3",
  "updatedAt": "2020-07-28T03:09:36.818Z",
  "networkType": "ethereum",
  "devdoc": {
    "kind": "dev",
    "methods": {
      "approve(address,uint256)": {
        "details": "See {IERC721-approve}."
      },
      "balanceOf(address)": {
        "details": "See {IERC721-balanceOf}."
      },
      "baseURI()": {
        "details": "Returns the base URI set via {_setBaseURI}. This will be automatically added as a prefix in {tokenURI} to each token's URI, or to the token ID if no specific URI is set for that token ID."
      },
      "getApproved(uint256)": {
        "details": "See {IERC721-getApproved}."
      },
      "isApprovedForAll(address,address)": {
        "details": "See {IERC721-isApprovedForAll}."
      },
      "name()": {
        "details": "See {IERC721Metadata-name}."
      },
      "ownerOf(uint256)": {
        "details": "See {IERC721-ownerOf}."
      },
      "safeTransferFrom(address,address,uint256)": {
        "details": "See {IERC721-safeTransferFrom}."
      },
      "safeTransferFrom(address,address,uint256,bytes)": {
        "details": "See {IERC721-safeTransferFrom}."
      },
      "setApprovalForAll(address,bool)": {
        "details": "See {IERC721-setApprovalForAll}."
      },
      "supportsInterface(bytes4)": {
        "details": "See {IERC165-supportsInterface}. Time complexity O(1), guaranteed to always use less than 30 000 gas."
      },
      "symbol()": {
        "details": "See {IERC721Metadata-symbol}."
      },
      "tokenByIndex(uint256)": {
        "details": "See {IERC721Enumerable-tokenByIndex}."
      },
      "tokenOfOwnerByIndex(address,uint256)": {
        "details": "See {IERC721Enumerable-tokenOfOwnerByIndex}."
      },
      "tokenURI(uint256)": {
        "details": "See {IERC721Metadata-tokenURI}."
      },
      "totalSupply()": {
        "details": "See {IERC721Enumerable-totalSupply}."
      },
      "transferFrom(address,address,uint256)": {
        "details": "See {IERC721-transferFrom}."
      }
    },
    "version": 1
  },
  "userdoc": {
    "kind": "user",
    "methods": {},
    "version": 1
  }
}